:020000040800F2
:10000000702D0020010100084D0100084F0100087B
:10001000570100085F0100086701000800000000A8
:100020000000000000000000000000006F01000858
:100030007101000800000000594B0008750100081C
:1000400093010008C3010008C5010008C7010008AA
:10005000C9010008CB010008CD010008CF0100084C
:10006000D1010008D3010008D5010008D70100081C
:10007000D9010008DB010008DD010008DF010008EC
:10008000E1010008E3010008E50100081B01000888
:100090001B0100081B0100081B010008EF010008FC
:1000A00007020008090200080B0200080D02000800
:1000B0000F020008110200081302000815020008D0
:1000C00017020008190200081B0200081D020008A0
:1000D0001F020008210200085F02000861020008F8
:1000E000830200088502000887020008DFF80CD0B0
:1000F00007F05AFF0048004725010008702D002036
:100100000648804706480047FEE7FEE7FEE7FEE7B1
:10011000FEE7FEE7FEE7FEE7FEE7FEE7BD49000873
:10012000ED00000810B5012000F060FE04F0C9FDEC
:100130000A23044A0021044805F08FF804F0BDFEAC
:10014000002010BDE002002071030008704757A096
:1001500007F0CEFFFEE75BA007F0CAFFFEE760A056
:1001600007F0C6FFFEE764A007F0C2FFFEE7704796
:100170007047704710B504F0B9FC65480178491C18
:10018000017004F0BCFC04F0C8FEBDE8104004F0AF
:100190001BBE10B504F0AAFC5D480178491C017033
:1001A00004F0ADFC5B4C6068012804D17F2004F0B2
:1001B00055FA0020606004F05FFABDE8104004F0DA
:1001C00003BE70477047704770477047704770476D
:1001D0007047704770477047704770477047704767
:1001E000704770477047704770477047704710B549
:1001F000402002F08AFD002804D0BDE810404020D5
:1002000002F090BD10BD704770477047704770474F
:100210007047704770477047704770477047704726
:1002200070B53D4D40F225542146284604F0C5F9ED
:10023000002813D02146394804F0DEF9354C01205E
:100240002070E1682846491CE16004F04FF9A06085
:10025000BDE87040C1B2324800F0E0BA70BD7047EE
:1002600070B52E4D40F225542146284604F0A5F9DC
:10027000002805D021462846BDE8704004F0BCB9EE
:1002800070BD704770477047704770477047704740
:1002900070477047704770477047704770477047A6
:1002A000704770477047704770470000486172643C
:1002B000204661756C74206F636375726564210DEF
:1002C0000A0000004D656D4D616E616765204661F5
:1002D000756C74206F636375726564210D0A00008C
:1002E000427573204661756C74206F636375726527
:1002F00064210D0A000000005573616765204661A6
:10030000756C74206F636375726564210D0A00005B
:100310009A00002000000020003801400048004002
:100320001410002070B5074D0446C1B2284604F0F1
:10033000D9F84021284604F036F90028F9D02046A3
:1003400070BD0000003801405D4C0221204602F0E3
:10035000F4FF58B100220221204602F0FCFF0023E6
:1003600001221946184605F0C7FBEEE70122F2E725
:100370007CB5002404F0BAFB00F00AFD052000F073
:1003800035FD00F0F2FD4F4D0421284602F0D5FF67
:10039000F0B300220421284602F0DDFF322000F0F5
:1003A00025FD641C062CEFD3002000F0AAFD464971
:1003B0000C2008F030FB2D230093C8236E2214215B
:1003C000424800F0AFFF42A007F092FE47A007F0BE
:1003D0008FFE4DA007F08CFE59A007F089FE282360
:1003E000CDE900332822114663A007F081FE71A0F9
:1003F00007F07EFE7DA007F07BFE3BA007F078FEB5
:1004000083A007F075FE0A2300930823002200E072
:1004100054E04FF6FF75294683A000F019FF86A02F
:1004200007F066FE8AA007F063FE8BA007F060FE6F
:1004300002F09BF902F0E3F989A007F059FE2AA027
:1004400007F056FE112300930B23002229468EA0AD
:1004500000F0FEFE8CA007F04BFE00241223009358
:10046000E3B2002229462E2000F09EFE16492E20DF
:1004700008F0D1FA0A2000F0B9FC641C1E2CEDD360
:100480004FF4FA7000F0B2FC002000F03AFD72A0C8
:1004900007F02EFE09237E4A0021AFF2531004F02C
:1004A000DCFE04237B4A00217B4804F0D6FE0A20B0
:1004B00005F089F8BDE87C4004F021BB012269E722
:1004C0000008014000140140E0000020FC920008F8
:1004D000202020202020202020202020202020201C
:1004E000202020202020205F0D0A00002020202036
:1004F000205F2020202020202020202020202020BD
:1005000020202F202F0D0A00202020207C207C0975
:100510002020205F5F5F20205F5F205F205F7C20C6
:100520007C5F205F5F205F205F20205F5F20205F77
:100530005F205F2020205F2020205F0D0A00000048
:10054000202020207C207C0920202F205F205C2F71
:10055000205F60207C5F2020205F2F205F60207C58
:10056000205C2F205F292F205F60207C202F202FF0
:10057000202F202F0D0A0000202020207C207C5FCF
:10058000205F20205F5F25632025635F7C207C2027
:100590007C207C202025635F7C207C207C207C20AC
:1005A00025632025635F7C207C205C205C205C2010
:1005B0005C0D0A00202020207C5F205F205F5C5FB4
:1005C0005F5F7C5C5F5F2C5F7C207C207C205C5FBD
:1005D0005F2C202F207C207C20205C5F5F2C5F7CA8
:1005E000202F5F2F202F5F2F0D0A000020202020BA
:1005F00020202020202020202020202020202020FB
:1006000020202F5F2F205C5F205F2F0D0A0000004D
:1006100075434F532D49492076657273696F6E207B
:10062000322E35320D0A000076657273696F6E20C6
:10063000322E353200000000446576656C6F7069BB
:100640006E6720417373697374616E7420000000DB
:1006500076302E302E3200000D0A0D0A0000000008
:100660004E524632344C303120636F6E6669677586
:1006700072652052585F4D6F6465202E2E2E200922
:100680005B6F6B5D0D0A0000426F6F74696E6700EF
:10069000E0030020E00B0020A706000840F6E4413C
:1006A0004843000B704708B5002441F2883539A053
:1006B00007F01EFD00231A464FF6FF713CA0009381
:1006C00000F0C6FDDFF804814FF47A77A8F1080640
:1006D000B8F80000FFF7E2FF01467060A04200D8C2
:1006E00021468CB20146A84200D329468DB2B0FB08
:1006F000F7F107FB110236A007F0FAFC0022C8232D
:100700001146104605F0F8F9E2E7704770B5354933
:10071000002001F0BBFC2D480838006801F08FFF75
:100720000020314C61214FF400752154401CA84237
:10073000FBDB264912234022091D2CA001F02BFDD2
:1007400012232A4628492DA001F025FD0020302142
:100750002154401CA842FBDB11232A46224927A032
:1007600001F049FD2A46BDE8704012231E4927A02A
:1007700001F011BD4FF4A5714843000BC0F18F008B
:1007800042F2107148432B2190FBF1F000F6C410A7
:1007900080B270473C47656E6572616C205461732E
:1007A0006B204578706572696D656E743E0A0D0048
:1007B0003C47656E6572616C205461736B204578AF
:1007C000706572696D656E743E0000001C0000204B
:1007D000566F6C746167653A2025642E253033644A
:1007E0000D0A0000E40D0020E40B0020303A4361C4
:1007F0007264496E666F2E7478740000303A6666D3
:10080000657874322E696E6900000000303A6666C1
:10081000657874312E74787400000000D0E90223EA
:1008200093420FD203680269D15401688268491C5F
:10083000B1FBF2F302FB13110160C168491CC160F6
:10084000002070476FF00100704730B5C26800218A
:100850005AB1436801698468C95C5B1CB3FBF4F559
:1008600004FB1533521E4360C260C8B230BDC0687D
:100870007047002101604160C1600846704700B5C3
:1008800082600161FFF7F5FF002000BD426811445E
:1008900082680069B1FBF2F302FB1311405C704700
:1008A00000B585B0684602F081FE0198C821B0FB12
:1008B000F1F0B0F1807F0ED220F07F414FF0E020C8
:1008C000491E4161FF4AF02111704FF00001816122
:1008D0004FF007010161042002F0C1F805B000BD2E
:1008E00010B586B001218DF8041000208DF8051098
:1008F0004FF46021CDE9021000900220F24C8DF8F7
:1009000010006946204603F0DFFE012004F01DF8C8
:10091000002301220A21204603F056FF072302226A
:100920001021204603F050FF0121204603F0F4FE81
:100930000121204603F0FAFE204603F00AFF20467C
:1009400003F00CFF0028FAD1204603F00EFF2046EA
:1009500003F010FF0028FAD10121204603F011FF17
:1009600006B010BD2DE9F8430324ADF80040DFF8D0
:100970005C938DF8024010258DF803506946484677
:1009800002F07BFC0426ADF800608DF802408DF883
:1009900003506946CE4802F070FC4FF48470ADF805
:1009A00000008DF803606946484602F066FCE020CE
:1009B000ADF800008DF8024018278DF803706946E5
:1009C000484602F05AFC4FF4E060ADF80000DFF852
:1009D00004838DF802408DF803506946404602F0CA
:1009E0004CFC4020ADF8000048208DF8030069461B
:1009F000404602F042FC6801ADF800008DF802406C
:100A00008DF803706946484602F037FCA801ADF83E
:100A100000008DF803606946484602F02EFC4FF452
:100A20006040ADF80000AC4E8DF802408DF80370C8
:100A30006946304602F021FCA020ADF800008DF898
:100A400002408DF803506946304602F016FCBDE8BE
:100A5000F8832DE9F047DFF884920021484602F040
:100A6000E4FE484602F044FE9D4C00254FF4827798
:100A7000258067804FF40060A0800220E080012084
:100A8000208146026681A581E5814FF00708A4F820
:100A900010802146484602F04FFE0121484602F0F0
:100AA000C4FE25806780A580E580258166810820B9
:100AB000A081E581A4F8108021468A4C204602F0EE
:100AC0003BFE2046BDE8F047012102F0AEBE2DE915
:100AD000F047834C4FF41657143400252760A58047
:100AE000E5802581DFF80082A5810C2666812146FC
:100AF000404603F029FC40F2255901224946404670
:100B000003F0A4FC0121404603F096FC77A007F017
:100B1000EFFA2760A580E5802581A58166812146C1
:100B2000734C204603F010FC01224946204603F096
:100B30008DFC2046BDE8F047012103F07DBC30B5B7
:100B400087B040F2CF20ADF814004FF4FA60ADF852
:100B500010000024674DADF81640ADF8124004A90E
:100B6000284602F093FF6020ADF800000120ADF8A8
:100B70000200BDF8141040F22D50414344F62060AD
:100B8000B1FBF0F0ADF80600ADF808406946284624
:100B900003F024F80821284603F071FA6946284634
:100BA00003F054F80821284603F06FFA0121284683
:100BB00003F030FA0121284603F081F907B030BD77
:100BC0002DE9F047DFF83091484601F05DFF444CD5
:100BD000DFF81481243408F1040804F12C001026F5
:100BE000C4F80080C4E901060025C4E90365802734
:100BF000C4E905753002E561C4E9090521464846A6
:100C000001F0B3FFDFF8F090A9F11409484601F0B4
:100C10003BFF211D04F13C00C4F8008061C1C4E920
:100C20000457A5614FF44050E561C4E90905214628
:100C3000484601F09AFF304E783E304601F024FFDE
:100C4000214804F10C014C3020602C48C4E9010516
:100C50000220A1C1C001A0618000E06120202062CB
:100C60000002C4E909052146304601F07EFF304606
:100C7000BDE8F047012101F0A2BF1CB5062102200A
:100C800002F0AFFB4020009000208DF804000C2003
:100C90008DF8050001208DF80600684601F0DDFFA3
:100CA0001CBD08B500214FF0006001F0C6FE4FF4F6
:100CB000C06001F08FFE25208DF8000001208DF826
:100CC00001001DE023ED00E0002401400008014088
:100CD0000014014000100140000C014000300140B0
:100CE000A810002000380040003801400D0000002E
:100CF0000048004000040040800002401C0000202A
:100D000005218DF802108DF80300684601F067FE9A
:100D100008BD70B502F08EFB4FF48034204602F01F
:100D2000A2FB02F0CDFB012823D1102002F016F81F
:100D3000022002F003F8002002F0F7FBA51128467C
:100D400002F001FC284602F0F7FB4FF4E0112046C8
:100D500002F0D4FB012002F0D9FB392002F09BFB0A
:100D60000028FAD0022002F0D4FB02F0D9FB0828B8
:100D7000FBD1012145F63D2002F064FC0121284809
:100D800002F069FCBDE870400121084602F051BC48
:100D9000244910B5002008702349087023490860D1
:100DA000FFF7B7FFFFF77DFFFFF767FFFFF708FFCC
:100DB000FFF7C5FEFFF78BFEFFF74BFEFFF7D2FDF7
:100DC000FFF78EFDFFF76CFD194C00220121204634
:100DD00002F0C1FA00220221204602F0BCFA0122F0
:100DE000BDE810400421134802F0B5BA4FF4445353
:100DF00002E01946491EFDD2401EFAD2704700E0BB
:100E0000401E0028FCD17047002203E06C21491EDF
:100E1000FDD2521C8242F9D37047401EFDD270476A
:100E20000240040000000020100000200C00002000
:100E300000080140001401402DE9F04107464FF43D
:100E40008060FF4C606145106561FE4E8021304638
:100E500002F057FD0028F9D1B9B2304602F00DFD7D
:100E60008021304602F04DFD0028F9D12561BDE812
:100E7000F0812DE9F047F24D4FF4806780468946B6
:100E80006F616E156E61EF4C8021204602F039FDD6
:100E90000028F9D11FFA88F1204602F0EEFC8021EB
:100EA000204602F02EFD0028F9D12E612F616E61DF
:100EB0008021204602F025FD0028F9D11FFA89F192
:100EC000204602F0DAFC8021204602F01AFD0028BC
:100ED000F9D12E61BDE8F08770B5DA4D0446802166
:100EE000284602F00EFD0028F9D1A1B22C46284672
:100EF00002F0C3FC8021204602F003FD0028F9D156
:100F000070BD2DE9F047814600210820FFF7B1FFB1
:100F100000210A20FFF7ADFFEF210920FFF7A9FF0D
:100F200040F23F110B20FFF7A4FF00210620FFF73E
:100F3000A0FF00210720FFF79CFF0E20FFF77CFF9A
:100F4000BF4E4FF4007777613015306100254FF4C4
:100F5000A07800244846FFF7BFFF641CF02CF9D3AB
:100F60006D1C4545F5D33761B4E770B5B44C4FF40B
:100F7000807565614FF47A763046FFF740FF256152
:100F80003046FFF73CFF01210320FFF772FF0121EC
:100F90003A20FFF76EFF6420FFF731FF7B2124200A
:100FA000FFF767FF0A20FFF72AFF3B212520FFF705
:100FB00060FF34212620FFF75CFF0A20FFF71FFFA8
:100FC00004212720FFF755FF25215220FFF751FF6D
:100FD0000A20FFF714FF33215320FFF74AFF1C219B
:100FE0006120FFF746FF0A20FFF709FF2C2162204E
:100FF000FFF73FFF22216320FFF73BFF0A20FFF7A7
:10100000FEFE27216420FFF734FF0A20FFF7F7FEDA
:1010100014216520FFF72DFF0A20FFF7F0FE1021B5
:101020006620FFF726FF2D212E20FFF722FF00214B
:101030001920FFF71EFFC820FFF7E1FEA1141A20B8
:10104000FFF717FF23211B20FFF713FF40F6014195
:101050001C20FFF70EFF00211D20FFF70AFF0921CA
:101060001E20FFF706FF35211F20FFF702FF152185
:101070002020FFF7FEFE41F67B611820FFF7F9FE06
:1010800000210820FFF7F5FEEF210920FFF7F1FE10
:1010900000210A20FFF7EDFE40F23F1421460B200D
:1010A000FFF7E7FE00212920FFF7E3FE00212A20B9
:1010B000FFF7DFFEEF212B20FFF7DBFE21462C2080
:1010C000FFF7D7FE02213220FFF7D3FE00213320A5
:1010D000FFF7CFFE00213720FFF7CBFE01213B2099
:1010E000FFF7C7FE00210420FFF7C3FE10210520F3
:1010F000FFF7BFFE00210120FFF7BBFE00210846DD
:10110000FFF7B7FE1420FFF77AFEBDE8704000201D
:10111000F7E62DE9F04782460D4614461E460820A4
:10112000089FFFF7A6FE21460A20FFF7A2FEA91995
:10113000491E0920FFF79DFEE119491E0B20FFF70C
:1011400098FE29460620FFF794FE21460720FFF768
:1011500090FE0E20FFF770FEDFF8E4804FF4007978
:10116000C8F814904FF48061C8F81010002508E00A
:10117000002403E05046FFF7AFFE641CB442F9D3ED
:101180006D1CBD42F4D3C8F81090A3E610B50C4610
:10119000F02908D801460620FFF76BFE2146BDE87E
:1011A0001040072065E610BD2DE9FF5F82468B46A3
:1011B000DE001C46314608200E9DFFF75AFE2F0127
:1011C00039460A20FFF755FE072000EBC40109202D
:1011D000FFF74FFE0F2000EB05110B20FFF749FE34
:1011E00031460620FFF745FE39460720FFF741FE4E
:1011F0000E20FFF721FEDFF848804FF40079C8F891
:1012000014904FF48061C8F810100F484FF000069A
:1012100000EB0A170024BD5D280601D5584600E002
:101220000298FFF759FE6806641C050EE4B2082C0C
:10123000F2D3761CF6B2102EECD3C8F8109005E06D
:1012400000100140003001403C8A0008BDE8FF9FCB
:101250002DE9F84306460F4690461C46089D10E0CF
:101260002346424639460095FFF79EFF641CE4B2D0
:101270001E2C05D36D1C0024EDB2142D00D30025C7
:10128000761C30780028EBD1BDE8F8832DE9FF5FAC
:1012900082468B461E011C46314608200E9DFFF7F4
:1012A000E8FD2F0139460A20FFF7E3FD4FF00F0854
:1012B00008EB04110920FFF7DCFD08EB05110B20FA
:1012C000FFF7D7FD31460620FFF7D3FD394607204B
:1012D000FFF7CFFD0E20FFF7AFFDDFF8E8824FF4F8
:1012E0000079C8F814904FF48061C8F81010B6481F
:1012F0004FF0000600EB4A170024BD5D280601D51B
:10130000584600E00298FFF7E7FD6806641C050EEA
:10131000E4B2082CF2D3761CF6B2202EECD3C8F837
:1013200010908CE72DE9F04705460E4614461F46FF
:101330000820DDF82080FFF79CFD21460A20FFF7FA
:1013400098FDF119491E0920FFF793FD04EB0801F0
:10135000491E0B20FFF78DFD31460620FFF789FD62
:1013600021460720FFF785FD0E20FFF765FDDFF81A
:1013700054924FF4007AC9F814A04FF48061C9F870
:101380001010002609E0002404E02888FFF7A4FDDF
:10139000AD1C641CBC42F8D3761C4645F3D3C9F897
:1013A00010A097E52DE9F84F0020FFF7AAFD0023D4
:1013B0004FF6FF741A46214684A00093FFF748FFBA
:1013C0000123009300231A46214683A0FFF740FF24
:1013D0004FF47A70FFF70AFD00210820FFF749FD5E
:1013E00000210A20FFF745FDEF210920FFF741FD0D
:1013F00040F23F110B20FFF73CFD00210620FFF7D4
:1014000038FD00210720FFF734FD0E20FFF714FD03
:101410006C4EDFF8D89100254FF4165B4FF400773F
:101420004FF480687761C6F8108059F825A05C46B3
:101430005046FFF751FD641EFAD16D1CEDB2082D28
:10144000F0D34FF47A70FFF7D1FCBB460025B246CB
:101450004FF4A07700210820FFF70BFD00210A20A0
:10146000FFF707FDEF210920FFF703FD40F23F11D1
:101470000B20FFF7FEFC00210620FFF7FAFC0021FD
:101480000720FFF7F6FC0E20FFF7D6FCCAF814B0D1
:101490004FF48061CAF8101059F825800026002406
:1014A0004046FFF719FD641CBC42F9D3761CF02EB0
:1014B000F5D36D1CEDB2082DCCD3CAF810B04FF4A3
:1014C0007A742046FFF792FC0020FFF71AFD0023F4
:1014D0001A464FF6FF7146A00093FFF7B9FE20466B
:1014E000FFF784FCBDE8F84F00200AE570B505461B
:1014F00014460620FFF7BDFC21460720FFF7B9FC84
:101500002946BDE870400E20B3E402680B68036012
:101510000A6070472DE9FF4F81B00C4615461E4604
:10152000C9B20E9F0198FFF7E1FFB44205D1BD4259
:1015300003D1012005B0BDE8F08F4FF00009301B4A
:1015400001D5C0F10000791B00D5494288420ADA72
:1015500022462C46154632463E4617460246084667
:101560004FF0010911464FF0010C331B62464FF05A
:10157000FF38002B00DC424600927A1B002A00DC78
:10158000C4464FEA4108091AE3464FEA410AA8EB6C
:10159000000712E0002F01DA474401E05D445744A0
:1015A000B9F1000F02D02246E9B201E02A46E1B2C9
:1015B0000198FFF79BFF00980444B442EAD1002051
:1015C000B8E70000001001403C9200084C544D3038
:1015D000323241363942000074657374207374618D
:1015E0007274696E672E2E2E000000001C8A00089F
:1015F00074657374206F6B210000000000B585B026
:101600000021ADF800104FF48272ADF80220ADF861
:1016100004100222ADF806200122ADF80820520283
:10162000ADF80E100721ADF80A20ADF8101040B14A
:101630000820ADF80C006946FF4802F07DF805B0BF
:1016400000BD3020F5E710B50020FFF7D7FFBDE85B
:1016500010400121F84802F0E8B870B506460C4683
:101660001546FF2007F0B6F9F4491020086046F04F
:10167000400007F0AFF9200E07F0ACF9C4F30740C3
:1016800007F0A8F9C4F3072007F0A4F9E0B207F0C7
:10169000A1F9284607F09EF90024FF2007F09AF9E7
:1016A000FF2803D1641CE4B2C82CF6D370BD2DE929
:1016B000F04105460C469046FF2007F08BF9E04FBD
:1016C0001026C7F8146845F0400007F083F9200E93
:1016D00007F080F9C4F3074007F07CF9C4F3072052
:1016E00007F078F9E0B207F075F9404607F072F9B3
:1016F0000024FF2007F06EF90546FF2803D1641C83
:10170000E4B2C82CF5D3C7F81068FF2007F062F9DF
:101710002846BDE8F0812DE9F0474FF0000A544615
:10172000FF2007F057F9641CA4B20A2CF8D3002458
:1017300040F6FF75002195220846FFF7B8FF012803
:101740000BD0641CA4B2AC42F4D3AC4205D1BDA012
:1017500006F0CEFC0120BDE8F08787224FF4D5715A
:101760000820FFF77AFFC14EDFF8D4824FF010094E
:10177000052802D001284FD0B7E0012086F84E009E
:10178000C8F81098FF2007F025F900240022114620
:101790003720FFF78CFF074601285FD10022114652
:1017A0002920FFF784FF50B3641CA4B2AC42EDD3F0
:1017B000AC4224D10024002211460120FFF777FF1C
:1017C00001000AD0641CA4B2AC42F4D3AC4204D1F0
:1017D000A7A006F08DFC0220BDE786F84EA0B0A0C1
:1017E00006F086FC0120FFF709FF012200213B20C3
:1017F000FFF75DFF040004D00146B3A04FE0BFA097
:10180000EEE7FF224FF400711020FFF750FF0400B5
:101810006BD00146C3A042E0FF2007F0DBF8FF20B9
:1018200007F0D8F8FF2007F0D5F80446FF2007F0AE
:10183000D1F80746C8F81098FF2007F0CBF8012C24
:1018400053D1AA2F51D100244FF0804A00221146D3
:101850003720FFF72CFF0746012805D00146BEA020
:1018600006F046FC384676E7002251462920FFF76D
:101870001EFF01000AD0641CA4B2AC42E6D3AC4205
:1018800004D1C2A006F034FC032064E70022114614
:101890003A20FFF7E2FE040005D00146C8A006F09A
:1018A00027FC204657E7FF2007F094F80446FF2066
:1018B00007F090F8FF2007F08DF8FF2007F08AF876
:1018C000C8F81098FF2007F085F8600604D50420BA
:1018D00086F84E00C7A003E0022086F84E00D0A094
:1018E00006F006FC0120FFF789FE002033E72DE912
:1018F000F047534E1025804689469246C6F8145844
:1019000000244FF4FA67FF2007F064F8FE2809D09E
:10191000641CA4B2BC42F6D3BC4203D1C6F8105832
:10192000012018E7002405E007F054F808F8040047
:10193000641CA4B24C454FF0FF00F5D307F04AF801
:10194000FF2007F047F8BAF1000F04D0C6F810588E
:10195000FF2007F03FF80020FDE610B5044688B0F0
:10196000FF2200210920FFF7A2FE002806D1012254
:1019700010216846FFF7BBFF10B1012008B010BD71
:10198000FF2200210A20FFF792FE0028F6D1012253
:10199000102104A8FFF7ABFF08B10220EEE79DF885
:1019A0000000800920709DF80000C0F38300607083
:1019B0009DF8000000F00300A0709DF80100E070A9
:1019C0009DF8020020719DF8030060719DF80400ED
:1019D0000001E080E0889DF8051040EA1110E080E9
:1019E0009DF8050000F00F0020729DF80600C00968
:1019F00060729DF80600C0F38010A0729DF806008A
:101A0000C0F34010E0729DF80600C0F30010207390
:101A1000002060739DF806108907090D2161216976
:101A20009DF8072041EA8201216121699DF8082083
:101A300041EA9211216107E10030014014080140A0
:101A4000000001405265736574206361726420690F
:101A50006E746F2049444C45207374617465206630
:101A600061696C6564210D0A0000000018110020F6
:101A700053656E6420434D44312073686F756C6408
:101A80002072657475726E20307830302C2072654B
:101A900073706F6E73653D3078253032780D0A00B3
:101AA000436172642054797065202020202020201A
:101AB00020202020202020202020202020203A200C
:101AC0004D4D430D0A00000053656E6420434D44A4
:101AD00035392073686F756C642072657475726E29
:101AE00020307830302C20726573706F6E73653DD6
:101AF0003078253032780D0A0000000043617264AE
:101B000020547970652020202020202020202020B3
:101B1000202020202020202020203A20534420561E
:101B2000310D0A0053656E6420434D4431362073F5
:101B3000686F756C642072657475726E20307830D1
:101B4000302C20726573706F6E73653D3078253070
:101B500032780D0A0000000053656E6420434D4446
:101B600035352073686F756C642072657475726E9C
:101B700020307830312C20726573706F6E73653D44
:101B80003078253032780D0A0000000053656E640D
:101B90002041434D4434312073686F756C6420726A
:101BA000657475726E20307830302C2072657370D9
:101BB0006F6E73653D3078253032780D0A00000075
:101BC00053656E6420434D4435382073686F756CDF
:101BD000642072657475726E20307830302C2072FB
:101BE0006573706F6E73653D3078253032780D0AFD
:101BF0000000000043617264205479706520202049
:101C000020202020202020202020202020202020D4
:101C100020203A20534420563248430D0A00000049
:101C20004361726420547970652020202020202098
:101C300020202020202020202020202020203A208A
:101C400053442056320D0A009DF80810C1F3C2011A
:101C500021759DF8081001F0070161759DF80910C4
:101C60004909A1759DF80910C1F38201E1759DF83C
:101C700009108907490F2176217E9DF80A2041EA43
:101C8000D21121769DF80A10C1F3840161769DF886
:101C90000A108907C90EA176A17E9DF80B2041EAA2
:101CA0005211A1769DF80B1001F01F01E1769DF80D
:101CB0000C10C90921779DF80C10C1F3411161770F
:101CC0009DF80C10C1F38201A1779DF80C108907D3
:101CD000090FE177E17F9DF80D2041EA9211E1774C
:101CE0009DF80D10C1F3401184F8201084F82100F4
:101CF0009DF80D0000F0010084F822009DF80E0010
:101D0000C00984F823009DF80E00C0F3801084F809
:101D100024009DF80E00C0F3401084F825009DF8C3
:101D20000E00C0F3001084F826009DF80E00C0F3EA
:101D3000810084F827009DF80E0000F0030084F86D
:101D400028009DF80F00400884F82900012184F83C
:101D50002A1094F84E00042808D19DF808000002CB
:101D6000206120699DF809201044206104F12404B9
:101D700054F8140C4FEAC04020624FF400706062C7
:101D80009DF8100020729DF811004FEA002060813C
:101D900060899DF8122040EA020060819DF81300DE
:101DA0004FEA0060E060E0689DF8142040EA0240DD
:101DB000E060E0689DF8152040EA0220E060E068FD
:101DC0009DF8162040EA0200E0609DF8170020749C
:101DD0009DF8180060749DF819004FEA006060617A
:101DE00060699DF81A2040EA0240606160699DF8D0
:101DF0001B2040EA0220606160699DF81C2040EAD7
:101E000002006061207E9DF81D2040EA12102076BD
:101E10009DF81D004FEA00704FEA10506083608B00
:101E20009DF81E2040EA020060839DF81F004FEAE3
:101E30005000207761774FF000009FE510B50C4609
:101E40008F4991F84E10042900D04002014600222B
:101E50001120FFF72CFC08B1012010BD0122510216
:101E60002046FFF744FD0446002211460C20FFF7F0
:101E70001EFC204610BD2DE9F0470D468049164650
:101E800091F84E10042900D0400201460022122091
:101E9000FFF70DFC08B101205DE400241027DFF8F6
:101EA000E4814FF4007910E005EB4420002249461C
:101EB000FFF71DFD40B1002211460C20FFF7F7FB94
:101EC000C8F81078022046E4641CB442ECD3002227
:101ED00011460C20FFF7EBFBC8F81078FF2006F046
:101EE00079FD002037E42DE9F0410D46644991F871
:101EF0004E10042900D04002014600221820FFF7AE
:101F0000D6FB08B1012004E45E4F1026C7F8146820
:101F1000FF2006F05FFDFF2006F05CFDFF2006F0CD
:101F200059FDFE2006F056FD00244FF4007815F808
:101F3000010B06F04FFD641CA4B24445F7D3FF200B
:101F400006F048FDFF2006F045FDFF2006F042FDAB
:101F500000F01F00052803D0C7F810680220D2E760
:101F60000024494D06E0641CAC4203D1C7F8106858
:101F70000320C8E7FF2006F02DFD0028F3D0C7F8A6
:101F80001068FF2006F026FD0020BCE72DE9F05F79
:101F900004463B480D46934690F84E10042901D064
:101FA000640221B1002259461720FFF780FB00226E
:101FB00021461920FFF77BFB10B10120BDE8F09FFF
:101FC000DFF8C0904FF01008C9F81488FF2006F021
:101FD00001FDFF2006F0FEFCFF2006F0FBFC0026C2
:101FE000DFF8A4A02EE0FC2006F0F4FC00244FF45F
:101FF000007715F8010B06F0EDFC641CA4B2BC429E
:10200000F7D3FF2006F0E6FCFF2006F0E3FCFF20FC
:1020100006F0E0FC00F01F00052803D0C9F8108886
:102020000220CBE70024574606E0641CBC4203D1E3
:10203000C9F810880320C1E7FF2006F0CBFCFF2879
:10204000F3D1761C5E45CED3FD2006F0C3FC10B163
:102050000024554608E00420B0E7641CAC4203D1DC
:10206000C9F810880520A9E7FF2006F0B3FCFF2877
:10207000F3D1C9F8108806F0ADFC00209EE70000FF
:102080001811002000000140010004007CB5054645
:102090000C4662A006F02CF82146284604F0BCFD50
:1020A000040002D029466BA008E06A4601A972A08C
:1020B00005F04CF9040008D0014670A006F018F8AD
:1020C0007BA006F015F820467CBD0098864C8378EE
:1020D000A16CC2694B43921E5343236582784A43E5
:1020E00001994A4362650078012804D0022804D08F
:1020F000032804D006E07DA002E086A000E08FA0C7
:1021000005F0F6FF97A0216D05F0F2FF9FA0616D2D
:1021100005F0EEFF00984178A6A005F0E9FF0098D1
:10212000C169AEA005F0E4FF00980169B5A005F013
:10213000DFFF0098C168BDA005F0DAFF4FF4007121
:10214000C4A005F0D5FF00988178CCA005F0D0FFA1
:102150000098C178D3A005F0CBFF00988169DBA07F
:1021600005F0C6FF00984169E2A005F0C1FF0098A4
:10217000416AEAA005F0BCFF0098016AF1A005F0F1
:10218000B7FF0098816AF9A005F0B2FF48A005F0FA
:10219000AFFF00207CBDF0B50F46ADF50B7D1646B8
:1021A000054601461A46684604F043FD040003D084
:1021B00002462946F7A00EE06846039904F0BCFFEA
:1021C00089AB32463946684604F093FE04000BD0D2
:1021D00002462946F9A005F08BFF684604F0A3FFEC
:1021E00020460DF50B7DF0BD32462946FEA0899BA9
:1021F00005F07EFFF1E7F0B50F46ADF50B7D164615
:10220000054601461A46684604F013FD040003D053
:1022100002462946DFA004E2F8E100000D0A2A2A5E
:102220002A2A2A2A2A2A2A2A2A2A2A2A2A2A2A2A0E
:102230002A2A2A2A2A2A2A2A2A2A2A2A2A2A2A2AFE
:102240002A2A2A2A2A2A2A2A2A2A2A2A2A2A2A2AEE
:102250000D0A00004D6F756E7420506879736963C4
:10226000616C20447269766572204661696C6564B0
:102270003A2025640D0A00002F00000047657420F5
:10228000506879736963616C204472697665722065
:10229000496E666F726D6174696F6E206661696CFC
:1022A00065643A20636F64653D253032780D0A001D
:1022B0002A2A2A2A2A2A2A2A2A2A2A2A2A2A2A2A7E
:1022C0002A2A2A2A2A2A2A2A2A2A2A2A2A2A2A2A6E
:1022D0002A2A2A2A2A2A2A2A2A2A2A2A2A2A2A2A5E
:1022E0002A2A0D0A000000001811002046696C65BA
:1022F0002053797374656D2053756220547970652D
:10230000202020202020202020203A204641543127
:10231000320D0A0046696C652053797374656D202F
:1023200053756220547970652020202020202020C1
:1023300020203A2046415431360D0A0046696C652A
:102340002053797374656D205375622054797065DC
:10235000202020202020202020203A2046415433D5
:10236000320D0A00546F74616C20737061636520D4
:1023700028427974657329202020202020202020E5
:1023800020203A20256C640D0A0000004176616926
:102390006C61626C6520737061636520284279749A
:1023A000657329202020202020203A20256C640DF0
:1023B0000A000000506879736963616C2064726977
:1023C0007665206E756D62657220202020202020A9
:1023D00020203A2025640D0A000000004D61786934
:1023E0006D756D20636C75737465722020202020DC
:1023F000202020202020202020203A2025640D0AA3
:10240000000000004E756D626572206F6620667276
:10241000656520636C7573746572732020202020BD
:1024200020203A2025640D0A000000004C617374DE
:1024300020616C6C6F636174656420636C75737488
:10244000657220202020202020203A2025640D0ABB
:10245000000000004D6178696D756D2073656374CF
:102460006F722073697A6520202020202020202090
:1024700020203A2025640D0A000000004E756D6290
:102480006572206F6620736563746F727320706568
:102490007220636C7573746572203A2025640D0A8E
:1024A000000000004E756D626572206F6620464127
:1024B0005420636F70696573202020202020202025
:1024C00020203A2025640D0A000000005365637443
:1024D0006F72732070657220666174202020202046
:1024E000202020202020202020203A2025640D0AB2
:1024F0000000000046696C652073797374656D2077
:10250000696E666F20736563746F722020202020CF
:1025100020203A2025640D0A00000000526F6F74DD
:10252000206469726563746F727920737461727468
:1025300020736563746F722020203A2025640D0A91
:10254000000000004641542073746172742073656A
:1025500063746F7220202020202020202020202043
:1025600020203A2025640D0A0000000044617461B7
:1025700020737461727420736563746F72202020FD
:10258000202020202020202020203A2025640D0A11
:10259000000000004F70656E2046696C6520466142
:1025A000696C65643A2025732C206572726F722005
:1025B000636F64653D253032780D0A005772746987
:1025C000652046696C65204661696C65643A202522
:1025D000732C206572726F7220636F64653D2530C5
:1025E00032780D0A00000000577269746520466950
:1025F0006C65205375636365737365643A20257356
:102600002C2025643A25640D0A00000089AB32466F
:102610003946684604F0C1FB040009D00246294649
:1026200022A005F065FD684604F07DFD2046D8E552
:102630003246294627A0899B05F05AFDF3E72DE98C
:10264000F0418EB00646014606A804F013FE0028AD
:1026500029D1304605F099FA04460DF10905002705
:1026600006EB0008694606A804F02BFE00281AD1E4
:102670009DF80910002916D02E29F3D09DF80800E6
:102680002A46C0060AD51CA1404605F041FD304649
:10269000FFF7D5FF002806D13755E3E7314617A0ED
:1026A00005F026FDDEE70EB0BDE8F08152656164FD
:1026B0002046696C65204661696C65643A20257323
:1026C0002C206572726F7220636F64653D25303215
:1026D000780D0A00526561642046696C6520537567
:1026E000636365737365643A2025732C2025643A0F
:1026F00025640D0A000000002F25730025732F2587
:10270000730D0A0070B5A04C05460221204601F069
:10271000F8F80028F9D02946204601F0AEF801214A
:10272000204601F0EEF80028F9D0204601F0A7F885
:10273000C0B270BD2DE9F047DFF850924FF080082D
:102740000E461746C9F8148CFFF7DCFF0546002437
:1027500004E00020FFF7D6FF3055641CBC42F8D3DC
:10276000C9F8108CE8B2BDE8F0871CB500200090D5
:1027700001906420FEF751FB8548202141604FF015
:10278000800101604FF0050269464FF01000FFF72D
:10279000D1FF1CBD70B57E4D80246C60FFF7B2FF89
:1027A0000020FFF7AFFF2C6070BD2DE9F041784DA0
:1027B00080240E466C60FFF7A5FF07463046FFF702
:1027C000A1FF2C603846BDE8F0812DE9F047DFF825
:1027D000BC914FF080080D461746C9F8148CFFF7DE
:1027E00091FF0646002404E02878FFF78BFF6D1C5C
:1027F000641CBC42F8D3C9F8108CF0B2B3E77CB5C6
:102800000020634C00902025019065604FF0050288
:1028100069464FF01000FFF78DFF05225D492A2021
:10282000FFF7D3FF00212120FFF7BFFF0121222066
:10283000FFF7BBFF1A212420FFF7B7FF282125202F
:10284000FFF7B3FF14213120FFF7AFFF0F21262040
:10285000FFF7ABFF03212020FFF7A7FF2560C8206B
:10286000FEF7DBFA7CBD70B5494C2025656049490F
:102870004FF00502A1F105014FF03000FFF7A5FF71
:10288000052244492A20FFF7A0FF00212120FFF75D
:102890008CFF01212220FFF788FF1A212420FFF757
:1028A00084FF28212520FFF780FF0F212620FFF736
:1028B0007CFF02212020FFF778FF256070BD70B5F6
:1028C000334C20250646656032494FF00502A1F1E0
:1028D00005014FF02A00FFF778FF14223146A020AF
:1028E000FFF773FF256070BD70B506460025072011
:1028F000FFF750FF0446400605D5142231466120FB
:10290000FFF718FF012521462720FFF74EFF284635
:1029100070BD204810B5801F017851B100210170B1
:1029200014221DA1224805F00BF9BDE810402048F3
:10293000C5E70121017014221EA1F3E71C4810B560
:102940002030FFF7D1FFC0B11948142219A120305F
:1029500005F023F928B1164814220FA1203005F004
:102960001CF901221146194800F0F5FC104900201D
:102970002031C87716A005F0BBFB0D481421BDE837
:102980001040203005F0F5B800380040000001404C
:10299000100C01406700002061626364656667682F
:1029A000696A313233343536373839300000000047
:1029B00070110020313233343536373839306162A6
:1029C000636465666768696A00000000000801408A
:1029D000257300002849084328490860704770B5EE
:1029E0000F24C27801784FF0E0230126E2B1D3F83A
:1029F0000C2D194402F4E062C2F5E062120AC2F141
:102A00000405D4404278AA408578254015432A0120
:102A100081F80024007800F01F018E40400903EB8C
:102A20008000C0F8006170BD01F01F0086404809B9
:102A300003EB8000C0F8806170BD114A1140014372
:102A40001048016070474FF0E0220029D2F8101DB5
:102A500001D0014300E08143C2F8101D70474FF0E0
:102A6000E0210428086903D020F0040008617047C1
:102A700040F00400FAE700000000FA050CED00E069
:102A800080FFFF1F08ED00E0016821F001010160F7
:102A90000021016041608160C1606849674A08396E
:102AA000904203D1486840F00F0006E0634A1432B8
:102AB000904204D1486840F0F000486070475F4A97
:102AC0002832904203D1486840F47060F5E75B4AD1
:102AD0003C32904203D1486840F47040EDE7574AD9
:102AE0005032904203D1486840F47020E5E7534AE1
:102AF0006432904203D1486840F47000DDE74F4AE9
:102B00007832904203D1486840F07060D5E74C4A73
:102B1000904204D1D1F8040440F00F0007E0484A85
:102B20001432904206D1D1F8040440F0F000C1F80C
:102B300004047047424A2832904204D1D1F8040478
:102B400040F47060F3E73E4A3C32904204D1D1F841
:102B5000040440F47040EAE7394A50329042E8D128
:102B6000D1F8040440F47020E1E730B5036847F67B
:102B7000F07293430C6A8A682243D1E904452C43DE
:102B800022438C692243CC6922434C6A22438C6ADB
:102B900022431A430260CA6842600A688260496838
:102BA000C16030BD0021016041608160C160016190
:102BB00041618161C16101624162816270470029A6
:102BC000016802D041F0010101E021F00101016042
:102BD0007047002A026801D00A4300E08A4302607D
:102BE0007047406880B27047024600201549D30004
:102BF00002D5D1F8001400E00968114200D001208C
:102C000070471049C20002D5C1F8040470474860FB
:102C10007047024600200B49D30002D5D1F80014BA
:102C200000E00968114200D0012070470549C20048
:102C300002D5C1F80404704748607047080002409C
:102C40000804024000000240384800210160416051
:102C50008160C16036494161704730B5334A81793E
:102C6000036899B311460C6824EA03040C604B68AE
:102C7000046823EA04034B60047904EB02031C6834
:102C8000056844EA05041C608B68046823EA0403B1
:102C90008B60CB68046823EA0403CB604379A1F519
:102CA0008061102B05D099180A68006802430A60F9
:102CB00030BD01F581610A68036842EA03020A60D7
:102CC0004A68006842EA00024A6030BDFFE70079C6
:102CD0001044016899430160F7E700210160017128
:102CE0000C2242718171704712490A6842EA00025F
:102CF0000A607047104A0146002012680A4200D05C
:102D0000012070470C4908607047084B01460020BD
:102D10001A685B6902EA01020B4202D0002A00D065
:102D2000012070470449086070470000000401401A
:102D3000FFFF0F001004014014040140FF4A116816
:102D400001F03801014311607047FC490A6822F024
:102D500008020A600A6802430A607047F7490A6875
:102D600022F010020A600A6802430A607047F348C2
:102D7000F3494160F34941607047F048F0494160D0
:102D8000F04941607047ED48016941F080010161FF
:102D90007047EA48016941F0800101617047E749E5
:102DA0000420CA68D20701D001207047CA685207C0
:102DB00001D502207047C968C906FBD503207047BA
:102DC00000B50346FFF7EBFF02E0FFF7E8FF5B1EED
:102DD000012803D0002B00D1052000BD002BF4D129
:102DE000FAE770B505464FF430263046FFF7E8FFA6
:102DF000042813D1D14C206940F0020020616561A4
:102E0000206940F0400020613046FFF7D9FF0528D7
:102E100004D0216941F6FD721140216170BD30B5C9
:102E20004FF430252846FFF7CBFF042812D1C34CBE
:102E3000206940F004002061206940F040002061DA
:102E40002846FFF7BDFF052804D0216941F6FB7233
:102E50001140216130BD00B50346FFF7A0FF02E03D
:102E6000FFF79DFF5B1E012803D0002B00D105203A
:102E700000BD002BF4D1FAE730B54FF430252846D9
:102E8000FFF7E9FF042812D1AC4C206940F00400A0
:102E90002061206940F0400020612846FFF7DBFFF9
:102EA000052804D0216941F6FB721140216130BD33
:102EB000A2490020C969890700D50120704770B573
:102EC000A525FFF7F5FF00B100254FF43026304669
:102ED000FFF776FF042827D1984C9948A0609948BD
:102EE000A060206940F020002061206940F040008F
:102EF00020613046FFF764FF41F6EF7604280ED1DB
:102F0000206941F6DF7108402061206940F010001F
:102F100020618D4805804FF40050FFF751FF0528D0
:102F200002D021693140216170BDF0B505464FF4F2
:102F3000005C0E466046FFF743FF042816D17F4C25
:102F4000206940F0010020612E806046FFF738FFC5
:102F500041F6FE77042804D1300C68806046FFF704
:102F60002FFF052802D0216939402161F0BDF0B55D
:102F700005464FF400570E463846FFF721FF042858
:102F80000ED16E4C206940F0010020612E80384641
:102F9000FFF716FF052803D02169BA1E11402161F1
:102FA000F0BDF0B505464FF400570E463846FFF722
:102FB00007FF042813D1614C6148A0606148A060FC
:102FC000206940F0100020612E803846FFF7F8FE9F
:102FD000052804D0216941F6EF7211402161F0BD4E
:102FE0002DE9F043C043C4B2C0F30725C0F3074640
:102FF000070E4FF400594846FFF7E2FE04283AD185
:10300000DFF838814E4AC8F808204E4AC8F8082030
:10301000D8F8102042F01002C8F81020DFF82CC1B8
:10302000FF2C06D0ACF808484846FFF7C9FE042834
:1030300018D1FF2D06D0ACF80A584846FFF7C0FE5D
:1030400004280FD1FF2E06D0ACF80C684846FFF7D5
:10305000B7FE042806D1FF2F06D0ACF80E784846FC
:10306000FFF7AEFE052806D0D8F8102041F6EF7322
:103070001A40C8F81020BDE8F08370B506464FF43A
:1030800030252846FFF79CFE042818D12B4C2C48ED
:10309000A0602C48A060206940F0200020612069D9
:1030A00040F0400020612846FFF78AFE41F6DF71BC
:1030B000042805D0052802D022690A40226170BD8B
:1030C000206908402061206940F0100020611F48FD
:1030D0000EB1002100E0A521A0F800182846FFF756
:1030E0006FFE0528EBD0216941F6EF721140216196
:1030F00070BDF0B5114C064611480D461746A0604C
:103100001048A0604FF4005C6046FFF759FE0428A9
:1031100013D1206940F0100020613D430C49354334
:1031200045F0F80008806046FFF74AFE052804D005
:10313000216941F6EF7211402161F0BD002002408B
:1031400023016745AB89EFCD00F8FF1F00F0FF1F9B
:1031500002F8FF1F1C48C069800870471A48006ABF
:103160007047194900200968890600D50120704779
:10317000154A0029116901D0014300E08143116122
:10318000704701460020104A012903D0D2680A4244
:1031900003D17047D169C907FBD0012070470A49A4
:1031A000C860704708490420CA68D20701D00120CE
:1031B0007047CA68520701D502207047C968C9061E
:1031C000FBD5032070470000002002408F4910B556
:1031D000884206D10121042000F046FA0021042093
:1031E0003BE08B49884206D10121082000F03CFADF
:1031F0000021082031E08749884206D101211020B2
:1032000000F032FA0021102027E08349884206D1DD
:103210000121202000F028FA002120201DE07F4914
:10322000884206D10121402000F01EFA00214020F2
:1032300013E07B49884206D10121802000F014FA76
:103240000021802009E0774988420AD184150121B4
:10325000204600F009FA00212046BDE8104000F0A9
:1032600003BA10BD10B50121084600F0FDF9002198
:10327000BDE81040012000F0F7B9F0B5CC7800228D
:1032800004F00F03E40601D58C7823430C884FF03B
:103290000F0C14F0FF0F4FF0010E1AD005680E88C6
:1032A0000EFA02F42640A6420FD196000CFA06F759
:1032B000BD4303FA06F63543CE78282E02D0482EB9
:1032C00002D002E0446100E00461521C082AE6D307
:1032D00005600A88FF2A1DD94568002202F1080608
:1032E0000EFA06F40E882640A6420FD196000CFA7C
:1032F00006F725EA070703FA06F5CE783D43282EA0
:1033000000D14461CE78482E00D10461521C082AB5
:10331000E4D34560F0BD4FF6FF710180022181705A
:103320000421C17070470246002092680A4200D012
:1033300001207047806880B2704702460020D26842
:103340000A4200D001207047C06880B27047016116
:103350007047416170470AB1016170474161704730
:10336000C160704741F4803282618161826181690C
:10337000806970472C4B10B51A684FF68074224054
:1033800042EA00100843186010BD2849C861704720
:10339000F0B5254C002801DAE36900E06368420DCE
:1033A000120185B2C0F301579540C0F30346032FC5
:1033B00005D0C2020AD50322B240934307E023F0AE
:1033C0007062636823F07063636002E0AB4343F0B4
:1033D000706201B12A43002801DAE261F0BD626047
:1033E000F0BD10B58A0721F003040F49120F2144E4
:1033F0000F238C6893409C438C608B689040034300
:103400008B6010BD0A490860704700000008014049
:10341000000C014000100140001401400018014060
:10342000001C01400020014000000140000020423B
:10343000DC002042A248016841F0010101604168BE
:10344000A04A1140416001689F4A11400160016833
:1034500021F480210160416821F4FE0141604FF4B4
:103460001F018160704796490A6822F480320A6021
:103470000A6822F480220A60B0F5803F07D0B0F5D8
:10348000802F03D1086840F4A020086070470868C6
:1034900040F48030F9E7034600205909884A0129A1
:1034A0000AD002290AD0516A03F01F020123934077
:1034B0000B4200D0012070471168F5E7116AF3E76D
:1034C00030B500244FF4A0653120FFF7E4FF641C01
:1034D000AC4201D00028F7D03120FFF7DCFF0028F4
:1034E00000D0012030BD764A116821F0F80141EA90
:1034F000C00010607047754908607047704B5A688B
:10350000084322F47C121043586070476F490866E4
:1035100070476B4A516821F00301014351607047C5
:103520006748406800F00C007047654A516821F018
:10353000F001014351607047614A516821F4E06134
:103540000143516070475E4A516821F4605141EA7D
:10355000C000506070475A4A0029517A01D0014397
:1035600000E0814351727047594908607047544ADE
:10357000516821F440410143516070475549002290
:103580000A7001F82029012802D0042802D1052060
:1035900081F82000704750490860704748490A6A1E
:1035A00002430A6270474D4908607047444A10B5AB
:1035B00051684B4B11F00C0103D0042901D00829AC
:1035C00001D0036012E05168536801F470114FF0AC
:1035D000020413F4803F04EB914102D053689B0333
:1035E00001D5404B00E03E4B5943016051683E4BD2
:1035F00001F0F00109095C5C0168E1404160546838
:1036000004F4E064240A1C5D21FA04F48460546824
:1036100004F46054E40A1B5DD940C1605268324B27
:1036200002F44042920B1B1F9A5CB1FBF2F1016164
:1036300010BD234A0029516901D0014300E08143B4
:10364000516170471E4A0029916901D0014300E091
:103650008143916170471A4A0029D16901D0014321
:1036600000E08143D1617047154A0029D16801D03B
:10367000014300E08143D1607047114A002911697C
:1036800001D0014300E08143116170471749086090
:1036900070470E49C86470470949C87170470848A7
:1036A000416A41F0807141627047054A014600203D
:1036B00092680A4200D00120704701498872704721
:1036C000001002400000FFF8FFFFF6FE000042423B
:1036D000D800424220100240800442423C04424250
:1036E00000127A0000093D007000002040044242B0
:1036F000974910B588420AD1841401212046FFF76A
:10370000B3FF2046BDE810400021FFF7ADBF91494F
:10371000884202D10121041404E08F4988420AD171
:103720000121C4132046FFF7A8FF2046BDE8104042
:103730000021FFF7A2BF10BD30B502884C8802F40B
:1037400041530A88CD8822438C882C4322430C891C
:1037500022434C8922438C892243CC8922431A4339
:103760000280828B22F400628283098A018230BD4A
:10377000F0B505460C4602200021AA8B85B0012633
:103780004FF240031A40AA832884AF8BA268022A12
:103790001ED0A08800B102266846FFF707FFE18827
:1037A0000098B1F5007F29D07101B0FBF1F000EB7A
:1037B0008000A1684000B0FBF1F0401D80B20A21FA
:1037C000B0FBF1F000F00101401AC0F34F00090214
:1037D000821EFE2A01D302200021E2880843024310
:1037E0002A8420886188A2890843A188114308435C
:1037F000384340F40060A88305B0F0BD000AD6E766
:103800000021018041808180C180018141818181CD
:10381000C1810721018270470021018041808180A0
:10382000C18002228260818170470029018802D014
:1038300041F0400101E021F0400101807047002982
:10384000818B02D041F4806101E021F480618183A9
:103850007047090901238B40002A828899B201D060
:103860000A4300E08A4382807047002A828801D0A0
:103870000A4300E08A4382807047818170478089D3
:103880007047A1F57E420188FF3A02D041F4807171
:1038900001E021F48071018070470029818802D005
:1038A00041F0040101E021F00401818070470288A9
:1038B00022F40062028002880A4302807047018875
:1038C00041F48051018070470029018802D041F401
:1038D000005101E021F4005101807047012901D01D
:1038E000008B7047808A7047008A7047B1F5804F1F
:1038F000018803D021F480410180704741F4804168
:10390000FAE70246002012890A4200D001207047DF
:10391000C9430181704710B501F00F03012404FA77
:1039200003F30246002009098C4091889BB2A4B29F
:10393000128921401A4202D0002900D0012010BD76
:1039400001F00F0201219140C9430181704700003D
:103950000030014000380040003C0040FF4910B5F5
:10396000884202D10121C41486E0B0F1804F09D011
:10397000FB4988420DD101210220FFF77EFE002184
:10398000022064E001210846FFF777FE00210120B4
:103990005DE0F449884206D101210420FFF76DFE65
:1039A0000021042053E0F049884206D1012108207B
:1039B000FFF763FE0021082049E0EC49884206D168
:1039C00001211020FFF759FE002110203FE0E849B7
:1039D000884206D101212020FFF74FFE0021202040
:1039E00035E0E449884202D10121441444E0E2492F
:1039F000884202D10121CC043EE0E049884202D154
:103A000001210C0538E0DE49884202D101214C0534
:103A100032E0DC49884206D101214020FFF72DFE2B
:103A20000021402013E0D849884206D1012180209E
:103A3000FFF723FE0021802009E0D44988420AD103
:103A4000841501212046FFF718FE00212046BDE81D
:103A50001040FFF712BECE49884202D101210C046A
:103A60000AE0CC49884202D101214C0404E0CA4951
:103A700088420AD101218C042046FFF7F5FD20463B
:103A8000BDE810400021FFF7EFBD10BD30B5028842
:103A9000B24CB84DA0420DD0A8420BD0B0F1804F2F
:103AA00008D0AF4B984205D0AE4B984202D0AE4BF7
:103AB000984203D122F070034A881A43AB4B9842D4
:103AC00006D0AB4B984203D022F44073CA881A4305
:103AD00002808A8882850A880285A0420AD0A8428C
:103AE00008D0AB4A904205D0AA4A904202D0AA4AD6
:103AF000904201D1097A01860121818230BD30B521
:103B0000028C22F001020284028C8388048B22F052
:103B1000020224F073050C882C430D8915434A8852
:103B20002A438E4DA8420BD0924DA84208D0984D02
:103B3000A84205D0974DA84202D0974DA8420DD17A
:103B400022F008054A8923F440732A4322F0040531
:103B50008A882A438D891D43CB892B438380048324
:103B6000C9888186028430BD30B5028C22F01002F3
:103B70000284028C8388048B22F0200224F4E64520
:103B80000C88240645EA14440D892D0542EA1545A2
:103B90004A88120545EA1242704DA84202D0754D7E
:103BA000A84215D122F080054A8923F4406312050A
:103BB00045EA124222F040058A88120545EA12427F
:103BC0008D89AD0443EA1545CB899B0445EA13432F
:103BD00083800483C9880187028430BD30B5028C9C
:103BE00022F480720284028C8388848B22F4007217
:103BF00024F073050C882C430D892D0642EA1545E7
:103C00004A88120645EA1242544DA84202D0594D44
:103C1000A84215D122F400654A8923F440531206C4
:103C200045EA124222F480658A88120645EA124269
:103C30008D892D0543EA1545CB891B0545EA1343BC
:103C400083808483C9888187028430BD30B5028C2B
:103C500022F480520284048C8288838B23F4E6450C
:103C60000B881B0645EA134324F400550C892407EE
:103C700045EA14444D882D0744EA1545374CA042C7
:103C800002D03C4CA04205D122F480448A8992059E
:103C900044EA124282808383C988A0F840100584D8
:103CA00030BD828B22F440628283828B42EA012201
:103CB00082837047828B22F00C028283828B0A43BC
:103CC00082837047028B22F440620283028B42EAB5
:103CD00001220283704770B5048C24F01004048420
:103CE000068B058C0C0126F4734646EA033141EA43
:103CF000022225F02001214341F0100102830184BA
:103D000070BD028B22F00C020283028B0A430283F5
:103D1000704770B50D46044608884988AA882B89E3
:103D2000E0B3042843D00828208C48D020F48050E9
:103D30002084A68B208C26F4734646EA022220F4C7
:103D4000005042EA033340EA013040F48050A3833C
:103D50002084E9882046BDE87040A2E7002C01409D
:103D60000004004000080040000C0040001000402B
:103D70000014004000340140004C0140005001405C
:103D80000054014000180040001C0040002000408A
:103D9000004001400044014000480140FFE7204648
:103DA00000F08DFAE9882046BDE87040A9E720467A
:103DB000FFF791FFE9882046BDE8704082E720F4D4
:103DC00080702084A68B208C26F0F30642EA031331
:103DD00020F40070334340EA012040F48070A38354
:103DE0002084E9882046BDE8704063E72DE9F04172
:103DF0000C46002549880746012601B90225A288FC
:103E0000012A00D10226208823890028384610D0B4
:103E1000FFF761FFE1883846FFF754FF23893246F8
:103E20002946384600F04BFAE1883846BDE8F041B3
:103E300067E700F044FAE1883846FFF762FF23891C
:103E4000324629463846FFF746FFE1883846BDE846
:103E5000F04137E710B50A884B88CC881A438B8825
:103E600023431A430B891A434B8989891A430A430E
:103E7000A0F8442010BD4FF6FF7181800021018021
:103E8000C1804180017270470021018041808180A2
:103E9000C180018141818181C18170470021018000
:103EA000418001228280C180018170470021018010
:103EB00041808180C18001814181818170470029D9
:103EC000018802D041F0010101E021F001010180EF
:103ED0007047002930F8441F02D041F4004101E04E
:103EE000C1F30E0101807047002A828901D00A4384
:103EF00000E08A4382817047818270471143A0F8B5
:103F000048107047002A828901D00A4300E08A43A2
:103F100082817047018921F0070101817047028980
:103F200022F070020A4302817047028922F0700277
:103F30000A430281018941F007010181704770B590
:103F40000D4611460446602D4FF001020BD000F0E3
:103F5000B6F9208920F0700028432081208940F0A4
:103F60000700208170BDFFF7B6FEF2E710B50489A7
:103F700042EA0323E4B20B432343038110BD10B58F
:103F80000446FFF7F3FF208940F07700208110BD41
:103F900010B50446FFF7EAFF208940F480402081F5
:103FA00010BD018582827047028822F070020A43A8
:103FB0000280704770B50589048B068C25F00705D3
:103FC0000D434FF6FC410C4040F201110C4326F02A
:103FD000220642EA0311314305810483018470BD46
:103FE000028B22F070020A4302837047028B22F494
:103FF000E04242EA012101837047828B22F0700285
:104000000A4382837047828B22F4E04242EA012114
:10401000818370470029018802D041F0800101E0CE
:1040200021F08001018070470029818802D041F091
:10403000040101E021F0040181807047002981889A
:1040400002D041F0080101E021F0080181807047B1
:104050000029818802D041F0010101E021F0010135
:1040600081807047028B22F008020A430283704766
:10407000028B22F4006242EA012101837047828BA5
:1040800022F008020A4382837047828B22F4006286
:1040900042EA012181837047028B22F004020A4325
:1040A00002837047028B22F4806242EA012101837D
:1040B0007047828B22F004020A4382837047828B0E
:1040C00022F4806242EA012181837047028B22F050
:1040D00080020A4302837047028BC2F30E0242EA57
:1040E000012101837047828B22F080020A43828380
:1040F0007047828BC2F30E0242EA0121818370472E
:10410000028C22F002020A4302847047028C22F0E1
:1041100008020A4302847047028C22F0200242EA1D
:10412000011101847047028C22F0800242EA0111E1
:1041300001847047028C22F4007242EA012101845A
:104140007047028C22F4006242EA01210184704728
:10415000028C22F4005242EA01310184704710B50A
:104160000123048C8B409C430484038C8A401343BA
:10417000038410BD10B50423048C8B409C4304843D
:10418000038C8A401343038410BD30B50124058C91
:1041900000F118038C40A543058479B108290DD09E
:1041A000091F88B203EB5000016821F4E04101606F
:1041B00001681206120C1143016030BD03EB51007F
:1041C000016821F0700101600168F4E700290188AD
:1041D00002D041F0020101E021F0020101807047AC
:1041E0000029018802D041F0040101E021F004011E
:1041F000018070470029818802D041F0800101E0F0
:1042000021F0800181807047028822F0080202803C
:1042100002880A4302807047828822F070028280FE
:1042200082880A4382807047028922F00702028155
:1042300002890A4302817047028922F080020281CA
:1042400002890A43028170478184704781857047E3
:10425000818670470187704781877047A0F84010BA
:104260007047028822F44072028002880A4302806A
:104270007047808E7047008F7047808F7047B0F80E
:1042800040007047808C7047008D704702460020C8
:10429000128A0A4200D001207047C9430182704748
:1042A00002460020138A92890B4202EA010202D0E0
:1042B000002A00D001207047C9430182704730B501
:1042C000048C24F001040484048B058C42EA03135B
:1042D00024F0F304234325F002020A4342F00101D3
:1042E0000383018430BD0000C64910B588420AD15D
:1042F00001218C032046FFF7B7F92046BDE81040A6
:104300000021FFF7B1B9C049884202D101214C0414
:1043100010E0BE49884202D101218C040AE0BC4968
:10432000884202D10121CC0404E0BA4988420AD172
:1043300001210C052046FFF7A0F92046BDE81040FA
:104340000021FFF79AB910BD30B50D46018A85B03E
:1043500004464CF6FF700140E88808432082A0899B
:104360004EF6F3110840A9882A8911436A8902434D
:104370001143A181A18A4FF6FF400140A88908435B
:10438000A0826846FFF712F99E48844201D1039843
:1043900000E00298A1890904002900EBC00101EBAB
:1043A0000010296802DA4FEA410101E04FEA810179
:1043B000B0FBF1F06422B0FBF2F14FEA01114FEAD9
:1043C00011136FF018056B4300EB8300A3891D04E4
:1043D0004FF0320306D503EBC000B0FBF2F000F063
:1043E000070005E003EB0010B0FBF2F000F00F0057
:1043F0000843208105B030BD4FF416510160002103
:104400008180C18001810C2242818181704710B579
:10441000028A4FF2FF031A400B884C8823438C8892
:10442000C9880C4323431343038210BD002101803C
:1044300041808180C18070470029818902D041F488
:10444000005101E021F400518181704710B5C1F3A2
:10445000421301F01F040121A140012B07D0022BC0
:1044600007D01430002A026805D00A4304E00C305B
:10447000F8E71030F6E78A43026010BD002A828A0E
:1044800001D00A4300E08A4382827047028A22F008
:104490000F020282028A0A4302827047828922F452
:1044A0000062828182890A43828170470029818962
:1044B00002D041F0020101E021F002018181704748
:1044C000028A22F020020282028A0A430282704794
:1044D0000029018A02D041F4804101E021F48041A9
:1044E00001827047C1F30801818070478088C0F362
:1044F00008007047818941F0010181817047028B7A
:10450000D2B20283028B42EA012101837047028BFF
:1045100002F47F420283028B0A4302837047002920
:10452000818A02D041F0200101E021F02001818246
:1045300070470029818A02D041F0100101E021F08A
:104540001001818270470029818A02D041F0080160
:1045500001E021F00801818270470029818902D0A1
:1045600041F4004101E0C1F30E018181704700294F
:10457000818A02D041F4006101E021F4006181826E
:104580007047828A22F004028282828A0A438282EF
:1045900070470029818A02D041F0020101E021F038
:1045A0000201818270470246002012880A4200D030
:1045B00001207047C9430180704770B501F01F06A4
:1045C00001250024C1F3421305FA06F2012B0FD096
:1045D000022B0FD0838A4FEA11210088134205FA7B
:1045E00001F500EA050001D000B10124204670BDAC
:1045F0008389F0E7038AEEE70A0A01219140C94363
:1046000001807047003801400044004000480040ED
:10461000004C00400050004010B50121CC02204663
:10462000FFF72BF82046BDE810400021FFF725B822
:10463000134A116821F4C07141EA0001116070470A
:104640000F4A116800F07F0021F07F0140EA01006D
:10465000106070470B490120086070470A4900F05C
:104660007F0008607047084940F08000086070478C
:1046700006480068C0B270470449002008607047CF
:10468000042C0040A4800542002C0040082C00406F
:10469000C24910B5884202D1012144150AE0C0493F
:1046A000884202D10121041504E0BE4988420AD1A2
:1046B0000121CC032046FEF7D7FF2046BDE810407D
:1046C0000021FEF7D1BF10BD10B54268B64B0C7982
:1046D0001A400B6842EA0422134343608268B34BDA
:1046E0001A40D1E9024323434C7942EA440213437E
:1046F0008360C26A097C22F47002491EC9B242EA90
:104700000151C16210BD00210160017141718160E0
:10471000C1600121017470470029816802D041F015
:10472000010101E021F001018160704700298168E9
:1047300002D041F4807101E021F480718160704702
:10474000002A4268C9B201D00A4300E08A434260AD
:104750007047816841F00801816070470146002080
:104760008968090700D501207047816841F004017C
:1047700081607047014600208968490700D5012003
:1047800070470029816802D041F4A00101E021F4C2
:10479000A00181607047014600208968490200D568
:1047A000012070474268491E22F4604242EA4131CA
:1047B000416070470029416802D041F4006101E086
:1047C00021F400614160704770B5072609290AD9B4
:1047D000C568A1F10A0404EB4404A640B543A34014
:1047E0001D43C56007E0056901EB4104A640B543E0
:1047F000A3401D4305611F23072A09D2446B521EA3
:1048000002EB820293409C4391400C43446370BD91
:104810000D2A09D2046BD21F02EB820293409C4303
:1048200091400C43046370BDC46A0D3A02EB8202EE
:1048300093409C4391400C43C46270BD0029816841
:1048400002D041F4801101E021F4801181607047B1
:10485000C06C80B2704756480068704700294168B4
:1048600002D041F4806101E021F480614160704731
:104870000029416802D041F4805101E021F48051C7
:1048800041607047826822F4E0420A4382607047C8
:104890000029816802D041F4004101E021F4004187
:1048A000816070470029816802D041F4021101E063
:1048B00021F4021181607047014600208968890255
:1048C00000D50120704770B5072609290AD9C568A7
:1048D000A1F10A0404EB4404A640B543A3401D43E0
:1048E000C56007E0056901EB4104A640B543A3405C
:1048F0001D430561836BC3F30154121B921C02EB31
:1049000082021F249440A34391400B43836370BDF4
:10491000826B491E22F4401242EA015181637047C2
:10492000425070470844806A80B270474268214B09
:104930001A400A434260704741628262704742688F
:1049400022F01F020A43426070471B490028D1F839
:10495000080402D040F4000001E020F40000C1F897
:10496000080470470246002012680A4200D0012065
:104970007047C9430160704710B502460020546873
:104980000B0AC9B20C401168194202D0002C00D0A9
:10499000012010BD6FEA1121016070470024014021
:1049A00000280140003C0140FFFEF0FFFDF7F1FF51
:1049B0004C240140FFFD3FFF0020014044480168B6
:1049C00041F0010101604168424A114041600168C3
:1049D000414A11400160016821F480210160416871
:1049E00021F4FE0141604FF41F01816000F02BB8FB
:1049F000374A10B55068394B10F00C01384803D0D5
:104A0000042901D0082901D0036012E051685368DD
:104A100001F470114FF0020413F4803F04EB914154
:104A200002D053689B0301D52E4B00E02B4B59431A
:104A3000016051682A4AC1F30311121D515C0268DA
:104A4000CA40026010BD224900200A6842F4803248
:104A50000A604FF4A0630A6800F1010012F4003FFD
:104A600001D19842F7D10868800330D51E4802680A
:104A700042F010020260026822F003020260026843
:104A800042F002020260486848604868486048682E
:104A900040F480604860486820F47C1048604868B2
:104AA00040F4E8104860086840F0807008600868CA
:104AB0008001FCD5486820F003004860486840F059
:104AC000020048604868C0F381000228FAD17047AC
:104AD000001002400000FFF8FFFFF6FE00127A000F
:104AE0008000002000093D000020024072B606B49C
:104AF0002E490A7802F101020A7006BC704706B41A
:104B00002A490A78A2F101020A704FF00001002A36
:104B100081F3108806BC7047254C264D25604FF068
:104B2000000484F30988244C4FF001052570234CC0
:104B30004FF08055256062B6FEE730B41F4C4FF051
:104B40008055256030BC704730B41C4C4FF0805508
:104B5000256030BC704700BFEFF3108372B6EFF3EF
:104B6000098030B1A0F1200080E8F00F144C2468D7
:104B7000206000B5134880475DF804EB124C134DDC
:104B80002E7826700E4C124E36682660306890E8FB
:104B9000F00F00F1200080F309884EF0040E83F33B
:104BA0001088704700BF72B6704700009400002064
:104BB00020ED00E00000FFFFA000002004ED00E079
:104BC000B8000020454C00089D0000209E000020F9
:104BD000C00000204FF080731360131FA2F1240265
:104BE00018606FF00100D0614FF0123090614FF00B
:104BF000033050614FF0023010614FF00130C2E9D4
:104C000002104FF0113050604FF0103042F804099C
:104C10004FF009301060A2F110004FF00831C16070
:104C20004FF0073181604FF0063141604FF00531A0
:104C300040F804194FF00431016070477047704725
:104C40007047704770477047704770477047000063
:104C5000FA4D4FF4C87402E0204600F02FFF697847
:104C60000029F9D0642069698046B1FBF0F4002680
:104C7000FFF73CFFE869A861EF69EE61FFF73FFFCE
:104C800054B1B7FBF4F0C0F1640040B2002801DB7E
:104C9000287005E02E7003E02E706969B1FBF8F40E
:104CA000FFF7D1FFC82000F009FFE1E7E34CFFF771
:104CB0001DFFE069401CE061FFF721FFFFF7C6FF21
:104CC000F5E710B586B0FFF7B9FFDC4C002323638E
:104CD000A370237163722372E360E361A361636174
:104CE0006370E37104F10A011846401C80B201F8B8
:104CF000013B0228F9D36371A371A3622362D049F7
:104D00000020E36241F82030401CC0B20D28F9D3E6
:104D1000CB48343000F1340100224161521C343060
:104D20003431D2B20C2AF8D34361C54834306062C2
:104D3000C448002100F10C02037042600C300C32B8
:104D4000491C0904090CF7D003704360BD48206179
:104D500001F082F901F02DFA00F094FE4FF4007496
:104D6000032300220294B848CDE903234FF6FF73D2
:104D7000CDE900300C2300F2FC720021AFF2D30029
:104D800000F0AEFA03230022AE480294CDE90323DB
:104D900018304FF6FE73CDE900300B2300F2FC72A1
:104DA0000021AFF2531000F09BFA06B0BDE81040AE
:104DB000FFF745BFA149087A012804D18878FF2868
:104DC00001D2401C8870704710B59C4C207A012895
:104DD00025D1FFF78BFEA07808B1401EA070217985
:104DE000C0B2084317D19949E079944A085C0A3265
:104DF000E070125C895C01EBC000C0B2A071617907
:104E0000884208D08E4951F82000A062E068401C1A
:104E1000E060FFF799FEBDE81040FFF770BE10BDDF
:104E200010B5864C207A01280AD1FFF75FFE207961
:104E3000FF2801D2401C2071BDE81040FFF75FBE83
:104E400010BD10B5FFF752FE7C4988780A791043EF
:104E500016D17E4AC87901F10A03105C1B5CD25C52
:104E600002EBC000C0B288714A79904208D0744AFF
:104E700052F820008862C868401CC860FFF75DFED9
:104E8000BDE81040FFF73BBE10B56C4C207A0128FE
:104E900012D1FFF72BFE207928B1401EC0B220713D
:104EA000A178084303D0BDE81040FFF728BEFFF704
:104EB00026FEBDE81040C4E710BD6048017A002915
:104EC00012D1624AC17900F10A03515C5B5CD25C89
:104ED00002EBC101C9B25A4A8171417152F82110E5
:104EE00081620162FFF718BE704710B5022000F022
:104EF000E5FDFFF7FBFD514C0020E061FFF7FFFDF2
:104F0000C82000F0DBFDFFF7F1FDE06960610120E2
:104F10006070BDE81040FFF7F2BD2DE9F041FFF7EA
:104F200094FEFFF7E3FD454D286B401C2863FFF717
:104F3000E6FD287A01282AD105F10A060127EC6A44
:104F400021E0FFF7D3FD608DD0B1A0F10100000496
:104F5000000C608514D194F82C0000070FD404F1E4
:104F60002F04E979A07840EA0100E871207862789E
:104F7000A4F12F04315C41EA0201315400E067855D
:104F80006469FFF7BCFD94F82D000C28D9D1BDE869
:104F9000F081FC2070477047F0B543782B4FA7F1A4
:104FA000080CFB5CC6181CF80340357A7F5D1CF8C2
:104FB00007C007EBC30735EA0C05FFB2357202D113
:104FC0004578A54345701E48002550F8270000F19C
:104FD0001C00C581C0E90051017C9143017409D1D5
:104FE0001649C8792043C87101F10A00C15C41EA41
:104FF0000C01C1543846F0BD70B5104C04F10A05DF
:10500000216AC86191F82F2091F83060AB5CB343FE
:10501000AB5404D191F83130E2799A43E27111F83E
:105020002F3F00F1080249789D5C0D439D54226A90
:10503000417892F831201143417070BD98000020F2
:10504000C8210020B0110020C819002054D9000840
:1050500030B53E4D00F108012B6A13F82F2F5B7815
:10506000545C9C43545405D12A6A417892F831200B
:1050700091434170286A002180F82C10C16130BD35
:10508000002141700172417270472DE9FF5F0646B1
:10509000DDE90EBA0D4690469946FFF727FD2B4FE6
:1050A0007C6AF4B354F8140F7862FFF728FD44F8D3
:1050B000145C667600252576E582A4F10C0044F8A0
:1050C00010ACA0E80009109824F8040C24F8029C05
:1050D0001F49A577F008E076085C607706F00700C6
:1050E000A076085C2077A5602561E560A4F1140432
:1050F0002046FFF7A9FD2046FFF7A2FDFFF7F6FCCB
:10510000144840F82640F86AC4E9050500B18461F6
:10511000FC6204F12F04F979A07840EA0100F871EB
:1051200000E00EE00949207801F10A0163780A5C89
:1051300042EA03020A54FFF7E2FC002004B0BDE893
:10514000F09FFFF7DCFC4620F8E700009800002005
:105150004CD90008C82100202DE9F04705460C462F
:105160000C2801D3FF2D01D10C2C02D32A20BDE83D
:10517000F087FFF7BBFCFF4850F8241019B1FFF788
:10518000BEFC2820F3E70121824640F82410FFF7F7
:10519000B6FCF949E60804F0070911F8068011F891
:1051A0000970FFF7A3FCFF2D03D1F448006890F8C5
:1051B0002D5000225AF82500E8B34AF8252090F82F
:1051C0002F20DFF8BCC390F830301CF802101942D1
:1051D00013D099430CF80210EA4A04D190F8313008
:1051E000117899431170117841EA080111701CF887
:1051F000061039430CF8061017E0C169A9B101F196
:10520000080512F805C03CEA030C02F805C004D1F9
:105210004A7890F831309A434A704A7842EA080254
:105220004A7031440A7A3A430A724AF8240000F874
:105230002D4F867000E00AE080F8019080F804802D
:10524000C770FFF75CFCFFF7FCFD00208FE74AF812
:105250002420FFF754FC292089E72DE9FE43054669
:105260000F4690461C460C2B02D92A20BDE8FE832F
:10527000FFF73CFCBF4E56F8240018B1FFF73FFC87
:105280002820F3E7012046F82400FFF738FC00232C
:10529000424639462846FFF79DFC00231A46194628
:1052A0008DE80E0001462046FFF7EFFE050008D00E
:1052B000FFF71CFC002046F82400FFF720FC2846DE
:1052C000D4E7FFF713FCB0480178491C0170FFF7E1
:1052D00016FCAE4800780128F1D1FFF7B2FDEEE7E9
:1052E0002DE9FF4F83B08146DDE91185149F8A4681
:1052F00093461C460C2B03D92A2007B0BDE8F08F3B
:10530000FFF7F4FB9B4E56F8240018B1FFF7F7FBAC
:105310002820F2E7012046F82400FFF7F0FBB80749
:1053200003D0A900404602F024FC3B465A465146B1
:105330004846FFF74FFC139A0146CDE90052029709
:1053400042462046109BFFF7A0FE050008D0FFF75D
:10535000CDFB002046F82400FFF7D1FB2846CCE720
:10536000FFF7C4FB88480178491C0170FFF7C7FBB1
:10537000864800780128F1D1FFF763FDEEE72DE9BB
:10538000F04105468248007810B13F20BDE8F08129
:105390000C2D04D005D3FF2D03D02A20F6E73D20A5
:1053A000F4E7FFF7A3FBFF2D03D17448006890F8E2
:1053B0002D50DFF8C08158F82540F4B394F82F0041
:1053C0006F4A94F83030115C9943115405D16D48FF
:1053D00094F83120017891430170E06978B194F834
:1053E0002F2000F108010B46515C94F83060B14366
:1053F000D15404D1417894F8312091434170606ACE
:1054000008B100F07DFC0027624E678584F82C709F
:105410003078FF2801D2401C3070FFF770FBFFF797
:10542000BAFDFFF763FB307808B1401E30702046AC
:10543000FFF707FC5448017800E01AE0491E0170AC
:1054400048F82570A06970B161694161D4E905012E
:1054500081615148016861610460FFF750FBFFF70B
:10546000F0FC002092E760694C4987616069086040
:10547000EFE7FFF744FB3C2088E710B504460C2813
:1054800004D00CD3FF2803D02A2010BD3D2010BD2E
:10549000FFF72CFB3948006890F832400BE0FFF72B
:1054A00025FB344850F8240020B13E2180F832100A
:1054B000002400E00B24FFF722FB204610BD10B5AE
:1054C00004460C2801D32A2010BDFFF70FFB294802
:1054D00050F8240048B190F82C100A0723D531F079
:1054E000080180F82C1004D005E0FFF708FB6420C9
:1054F00010BD418D19B1FFF702FB002010BD214AFC
:1055000000F12F008178137841EA030111700178CE
:105510001B4A4078535C43EA00035354FFF7EFFA09
:10552000FFF78FFCE9E7FFF7EAFA652010BD2DE9E8
:10553000F04104460E460C2803D9FF2C01D02A2046
:1055400024E7002030607060FFF7D0FAFF2C03D111
:105550000A48006890F82D40064850F8240040B1F1
:10556000018AC90720D0D0E902570024FFF7C7FA03
:105570001FE015E0C82100204CD90008B800002029
:10558000A20000209F000020A1000020A000002019
:105590009A0000209C000020BC000020C4000020D5
:1055A000FFF7ADFA0B20F1E6FFF7A9FA8220EDE64E
:1055B000641C01CD0028FBD0A0003060381B8000A7
:1055C00070600020E2E670B504460C2804D005D3D4
:1055D000FF2C03D02A2070BD5B2070BDFFF786FA38
:1055E0002948FF2C006805D090F82D00A04204D176
:1055F000012503E090F82D40FAE70025234850F8F4
:10560000240048B190F82F10214B90F830405A5C9C
:10561000A2435A5404D009E0FFF771FA5A2070BD32
:105620001C4990F831300A789A430A7010F82C1F00
:1056300041F008010170FFF762FA012D01D1FFF777
:1056400000FC002070BD70B504460D460C2803D93F
:10565000FF2C01D02A2070BDFFF748FAFF2C03D1A0
:105660000948006890F82D40084850F8241039B1D6
:105670003422284602F064FAFFF741FA002070BD98
:10568000FFF73DFA292070BDB8000020C821002096
:10569000A20000209F00002010B5040002D0207856
:1056A000022801D0002010BDFFF720FA6168C88AE7
:1056B00060B10A69101D08611468CA8A521ECA8244
:1056C0008A68904203D14868086100E00024FFF72F
:1056D00016FA204610BD2DE9F0410646F2488846EC
:1056E000007810B10020BDE8F081FFF7FFF9EF4F1F
:1056F0003D680DB168683860FFF701FA05B3FFF740
:10570000F5F9EB480468ACB121680160FFF7F7F9DF
:1057100006EB8800C4E90160E6602661A4F8148005
:105720000020E08202212970688028466C60FFF723
:10573000A7FC05E0386868603D60FFF7E0F90025E8
:105740002846D0E72DE9F0470446D7488846154655
:10575000007810B18C20107051E02CB12078022814
:1057600004D0012010701CE00420FBE7FFF7BEF915
:10577000607808B1012600E00026DFF834A3CB4FA3
:105780004FF00009B8F1000F06D0B8F1010F20D09A
:10579000FFF7B5F9072003E036B1FFF7B0F90820AD
:1057A00028702046BDE8F0876068DAF800204E4691
:1057B0000260CAF8000084F80090386860603C60BD
:1057C000FFF79DF92E701AE0042200212046FFF712
:1057D000E3FB60780028F7D16068DAF80020026007
:1057E000CAF8000084F80090386860603C60FFF7F9
:1057F00086F9012E01D1FFF724FB85F800900020E7
:10580000D0E710B5040004D02078022803D001208E
:1058100010BD042010BDFFF769F960684168C160E0
:1058200001610021C182FFF76AF9002010BD2DE956
:10583000F04105469C4888461446007808B102208D
:1058400006E025B12878022804D0012000E00420D9
:1058500010703BE0FFF74AF969680026C88A80B1FA
:105860000A69101D08611568CA8A521ECA828A68B0
:10587000904201D148680861FFF741F92670284637
:1058800031E78C4F386810F82C1F41F0040101708B
:1058900020F8028C2846FFF7AFFBFFF730F9FFF73F
:1058A000D0FAFFF723F93868076A47B1066280F833
:1058B0002C60C661FFF723F92670384613E72846A7
:1058C000FFF7C6FBFFF71BF90A20207000200AE74C
:1058D00070B504000D4605D035B12078022805D0FA
:1058E000012070BD042070BD032070BDFFF7FEF8DD
:1058F000607848B1042229462046FFF74DFBFFF7A8
:10590000FEF8FFF79EFA17E06068C18A828A91422A
:1059100003D3FFF7F4F81E2070BDC268111DC160EB
:105920001560C18A491CC182D0E902128A4201D1A4
:105930004168C160FFF7E3F8002070BD70B5040056
:105940000D4605D035B12078022805D0012070BD64
:10595000042070BD032070BDFFF7C8F8607848B11F
:10596000042229462046FFF717FBFFF7C8F8FFF788
:1059700068FA16E06068C18A828A914203D3FFF711
:10598000BEF81E2070BD42680169914201D1816854
:1059900001610A1F02611560C18A491CC182FFF7BB
:1059A000AEF8002070BD70B504000D46164605D057
:1059B00035B12078022805D0012070BD042070BDCB
:1059C000032070BDFFF792F86078A0B1F00708D00F
:1059D000042229462046FFF7DFFA60780028F7D135
:1059E00004E0042229462046FFF7D6FAFFF787F89D
:1059F000FFF727FA23E06068C18A828A914203D3C5
:105A0000FFF77DF81E2070BDB10709D54268016916
:105A1000914201D181680161091F01610D6009E0B6
:105A2000C1680A1DC2600D60D0E902128A4201D12C
:105A30004168C160C18A491CC182FFF760F800203B
:105A400070BD70B505000C4604D02878022803D03C
:105A5000012070BD042070BDFFF748F86878A0727F
:105A60002A7A2272697A61726868C18A09B1016909
:105A700009682160C18AA180808AE080FFF73FF831
:105A8000002070BD0C48002100F1180240F8182BCE
:105A90001832491C0904090CF8D00021016004499E
:105AA00005480860704700009A000020A800002008
:105AB000D4000020B80000204025002070B504006C
:105AC00019D0FFF713F84E484E4B016891F82F207C
:105AD00091F83050985CA843985405D14A4891F801
